:020000040800F2
:1000000000000120951100082511000827110008A3
:10001000291100082B1100082D1100080000000014
:100020000000000000000000000000002F11000888
:1000300031110008000000003311000835110008DC
:10004000D9110008D9110008D9110008D9110008E8
:10005000D9110008D9110008D9110008D9110008D8
:10006000D9110008D9110008D9110008D9110008C8
:10007000D9110008D9110008D9110008D9110008B8
:10008000D9110008D9110008D9110008D9110008A8
:10009000D9110008D9110008D9110008D911000898
:1000A000D9110008D9110008D9110008D911000888
:1000B000D9110008D9110008D9110008D911000878
:1000C000D9110008D9110008D9110008D911000868
:1000D000D9110008D9110008D9110008D911000858
:1000E000D9110008D9110008D9110008000000003A
:1000F0000000000000000000000000000000000000
:100100000000000000000000D9110008D91100080B
:10011000D9110008D9110008D9110008D911000817
:10012000D9110008D9110008D9110008D911000807
:10013000D91100080000000000000000D9110008DB
:10014000D9110008D9110008D9110008D9110008E7
:10015000000000000000000000000000000000009F
:10016000000000000000000000000000000000008F
:10017000000000000000000000000000000000007F
:10018000000000000000000000000000000000006F
:10019000000000000000000000000000000000005F
:1001A000000000000000000000000000000000004F
:1001B000000000000000000000000000000000003F
:1001C000000000000000000000000000000000002F
:1001D000000000000000000000000000000000001F
:0401E0005FF8E0F1F3
:1001E40010B5054C237833B9044B13B10448AFF36D
:1001F40000800123237010BD0C00002000000000CB
:10020400DC11000808B5034B1BB103490348AFF3E5
:10021400008008BD0000000010000020DC11000870
:1002240053B94AB9002908BF00281CBF4FF0FF3159
:100234004FF0FF3000F074B9ADF1080C6DE904CE55
:1002440000F006F8DDF804E0DDE9022304B07047AD
:100254002DE9F0478C460446089E002B4BD18A4278
:10026400154667D9B2FA82F24AB1C2F1200701FAFF
:1002740002F320FA07F7954047EA030C94404FEA4B
:10028400154EBCFBFEF71FFA85F80EFB17C307FBE0
:1002940008F9210C41EA0343994509D9EB1807F100
:1002A400FF3180F01C81994540F21981023F2B44B3
:1002B400A3EB0903B3FBFEF00EFB103300FB08F1C4
:1002C400A4B244EA0344A14209D92C1900F1FF3332
:1002D40080F00781A14240F2048102382C4440EAB4
:1002E40007400027641A1EB10023D440C6E9004326
:1002F4003946BDE8F0878B4209D9002E00F0EC8026
:100304000027C6E9000138463946BDE8F087B3FA4C
:1003140083F7002F48D18B4202D3824200F2FB8044
:10032400841A61EB030301209C46002EE0D0C6E949
:10033400004CDDE702B9FFDEB2FA82F2002A40F097
:100344008F800127491B4FEA15481FFA85F9B1FB35
:10035400F8FE08FB1E1109FB0EF04FEA144C4CEAA0
:100364000143984207D9EB180EF1FF3102D29842AB
:1003740000F2CD808E461B1AB3FBF8F008FB103355
:1003840009FB00F9A4B244EA0344A14507D92C1996
:1003940000F1FF3302D2A14500F2B6801846A4EB67
:1003A400090440EA0E409EE7C7F12005BB4022FA4B
:1003B40005FC4CEA030C21FA05F44FEA1C4EB4FB8D
:1003C400FEF91FFA8CF80EFB194420FA05F3B94024
:1003D40009FB08FA19430B0C43EA0444A24502FA48
:1003E40007F200FA07F30BD91CEB040409F1FF3000
:1003F40080F08880A24540F28580A9F10209644416
:10040400A4EB0A04B4FBFEF00EFB104400FB08FA54
:1004140089B241EA0444A24508D91CEB040400F162
:10042400FF316BD2A24569D90238644440EA0940DD
:10043400A0FB0289A4EB0A044C454146CE4654D3A2
:1004440051D0002E69D05A1A64EB0E0404FA05F553
:1004540022FA07F3FC401D43C6E90054002747E78E
:100464009540C2F1200321FA03F04FEA1548B0FB8E
:10047400F8F71FFA85F908FB170024FA03F39140F3
:1004840007FB09FC0B43190C41EA00418C4504FAB3
:1004940002F407D9691807F1FF3031D28C452FD9FE
:1004A400023F2944A1EB0C01B1FBF8F008FB101C3E
:1004B40000FB09FE99B241EA0C418E4507D969183F
:1004C40000F1FF3318D28E4516D902382944A1EB26
:1004D4000E0140EA07473AE73746304608E70F4639
:1004E400E6E61846FBE64345ABD2B8EB020169EBFE
:1004F4000C0201389646A4E71846E8E7084695E753
:100504000746CFE781467BE702382C4447E7AEF144
:10051400020E2B442FE7384607E73746E8E600BFCC
:10052400704700BF10B504460E4B18784FF47A7329
:10053400B3FBF0F30C4A1068B0FBF3F000F094F84E
:1005440068B90F2C01D901200AE0002221464FF09E
:10055400FF3000F055F8034B5C60002000E0012000
:1005640010BD00BF000000200800002008B5074AA5
:10057400136843F010031360032000F02FF80020E9
:10058400FFF7D0FF00F0A6FD002008BD00200240C8
:10059400034A1168034B1B780B441360704700BF78
:1005A4002800002000000020014B1868704700BF9D
:1005B4002800002038B50446FFF7F6FF0546B4F1DD
:1005C400FF3F02D0044B1B781C44FFF7EDFF401B98
:1005D400A042FAD338BD00BF00000020074AD36808
:1005E40023F4E0631B041B0C000200F4E0601843D6
:1005F40040F0BF6040F40030D060704700ED00E090
:1006040030B4174BDB68C3F30223C3F10704042C93
:1006140028BF04241D1D062D18D9033B4FF0FF35B8
:1006240005FA04F421EA0401994005FA03F322EAE5
:100634000303194300280BDB0901C9B200F1604030
:1006440000F5614080F8001330BC70470023E5E7F3
:1006540000F00F000901C9B2024B1954F4E700BFBE
:1006640000ED00E014ED00E00138B0F1807F0AD223
:10067400064B5860064AF02182F823100020986047
:1006840007221A6070470120704700BF10E000E0A5
:1006940000ED00E0F0B482B000263246A2E0002D66
:1006A4005AD0012D00D1CE68FF2B69D88446FF2B88
:1006B40069D89500DCF800400F27AF4024EA07040E
:1006C40006FA05F52C43CCF800404C6814F0805F22
:1006D40000F087805F4CA56945F00105A561A46918
:1006E40004F001040194019C9508AF1C5A4C54F881
:1006F400274002F00307BF004FF00F0C0CFA07FC71
:1007040024EA0C0C554CA04243D004F58064A0426A
:1007140000F0818004F58064A0427ED004F58064FA
:10072400A04234D0042435E04D4FBD4214D00BD93F
:100734004C4FBD4210D007F58037BD420CD0A7F511
:100744008017BD42B0D107E0A7F58017BD4203D0A2
:1007540007F58037BD42A7D18D687DB1012D08D042
:1007640044610826A0E7CE6808369DE7CE680C36BB
:100774009AE70461082697E7002695E7042693E79D
:1007840000F1040C93E7A2F10805AD0092E70324FD
:1007940000E00024BC4044EA0C0402352E4F47F824
:1007A40025404C6814F4803F39D02F4D2C681C43ED
:1007B4002C604C6814F4003F37D02B4D6C681C43FC
:1007C4006C604C6814F4801F35D0274DAC681C4312
:1007D400AC604C6814F4001F33D0234DEC68234301
:1007E400EB6001320B6833FA02F430D001249440F8
:1007F40023409C42F5D14D68122DB7D094D8022DD8
:10080400B1D07FF64CAF032DB6D0112D7FF44CAF91
:10081400CE68043648E70124BCE70224BAE7124D47
:100824002C6824EA03042C60C3E70F4D6C6824EAA7
:1008340003046C60C5E70C4DAC6824EA0304AC60A7
:10084400C7E7094DEC6824EA0303EB60C9E702B08B
:10085400F0BC704700100240000001400008014055
:1008640000002110000031100004014012B90904F5
:100874000161704701617047C3680B4201D1016196
:10088400704741617047000082B0084B1B68084AFA
:10089400A2FB03235B0A00FB03F0019000BF019B52
:1008A4005A1E0192002BF9D102B0704708000020B3
:1008B400D34D6210002800F0668270B582B0044601
:1008C400036813F0010F2CD0AB4B5B6803F00C03EF
:1008D400042B1DD0A84B5B6803F00C03082B12D02B
:1008E400A368B3F5803F41D0002B55D103F1804379
:1008F40003F504331A6822F480321A601A6822F469
:1009040080221A6037E09C4B5B6813F4803FE7D089
:10091400994B1B6813F4003F03D0A368002B00F02D
:100924003482236813F0020F76D0934B5B6813F084
:100934000C0F5FD0904B5B6803F00C03082B54D072
:100944006369002B00F08A808C4B01221A60FFF748
:100954002BFE0546884B1B6813F0020F75D1FFF779
:1009640023FE401B0228F5D9032011E2824A1368B2
:1009740043F480331360A36843B3FFF715FE0546C1
:100984007D4B1B6813F4003FCBD1FFF70DFE401BDA
:100994006428F5D90320FBE1B3F5A02F09D0764BE9
:1009A4001A6822F480321A601A6822F480221A60CB
:1009B400E1E703F18043A3F53C331A6842F4802253
:1009C4001A601A6842F480321A60D4E7FFF7ECFD2B
:1009D4000546694B1B6813F4003FA2D0FFF7E4FD02
:1009E400401B6428F5D90320D2E1634B5B6813F400
:1009F400803FA5D1604B1B6813F0020F04D06369DC
:100A0400012B01D00120C3E15B4A136823F0F803F2
:100A1400A16943EAC1031360236813F0080F32D0BD
:100A2400E369002B5BD0564B01221A60FFF7BCFD33
:100A34000546514B5B6A13F0020F21D1FFF7B4FD59
:100A4400401B0228F5D90320A2E14B4A136823F086
:100A5400F803A16943EAC1031360DDE7474B0022B1
:100A64001A60FFF7A1FD0546434B1B6813F0020F04
:100A7400D2D0FFF799FD401B0228F5D9032087E166
:100A84000120FFF701FF236813F0040F00F09880A2
:100A9400394BDB6913F0805F33D1374BDA6942F0AD
:100AA4008052DA61DB6903F080530193019B0125D5
:100AB400344B1B6813F4807F25D02369012B36D077
:100AC400002B4CD103F1804303F504331A6A22F05E
:100AD40001021A621A6A22F004021A622CE0284BFC
:100AE40000221A60FFF760FD0546234B5B6A13F092
:100AF400020FC8D0FFF758FD401B0228F5D9032088
:100B040046E10025D4E71F4A136843F48073136059
:100B1400FFF74AFD06461B4B1B6813F4807FCCD1BC
:100B2400FFF742FD801B6428F5D9032030E1124A07
:100B3400136A43F00103136223697BB3FFF734FDA7
:100B440006460D4B1B6A13F0020F38D1FFF72CFD3C
:100B5400801B41F288339842F3D9032018E1052B16
:100B640012D0054B1A6A22F001021A621A6A22F0A4
:100B740004021A62E0E700BF001002400000424293
:100B84008004424200700040844B1A6A42F004021E
:100B94001A621A6A42F001021A62CDE7FFF704FDF5
:100BA40006467E4B1B6A13F0020F08D0FFF7FCFCCD
:100BB400801B41F288339842F3D90320E8E0EDB971
:100BC400E36A002B6FD0754A526812F4803F05D057
:100BD400724A526802F00C02082A15D0022B4BD13B
:100BE4006E4B1B6813F0805F15D06C4BDB6A03F00F
:100BF400F003626B93420ED00120C9E0674AD369C7
:100C040023F08053D361DBE7644AD26A12F4803F55
:100C1400E4D00120BCE0624B00221A60FFF7C4FC60
:100C240005465E4B1B6813F0006F06D0FFF7BCFC53
:100C3400401B6428F5D90320AAE0584AD36A23F05C
:100C4400F003616B0B43D362D36A23F47063216BAB
:100C54000B43D362524B01221A60FFF7A5FC0546F1
:100C64004E4B1B6813F0006F1DD1FFF79DFC401B1A
:100C74006428F5D903208BE0484AD36A23F48033EF
:100C8400D362474B00221A60FFF78EFC0546434BA4
:100C94001B6813F0006F06D0FFF786FC401B642826
:100CA400F5D9032074E0236A002B70D03B4A5268C4
:100CB40002F00C02082A54D0022B11D0394B002226
:100CC4001A60FFF771FC0446344B1B6813F0007F75
:100CD40045D0FFF769FC001B0228F5D9032057E033
:100CE400304B00221A60FFF75FFC05462B4B1B6854
:100CF40013F0007F06D0FFF757FC401B0228F5D9FC
:100D0400032045E0636AB3F5803F1AD023494B685A
:100D140023F47413626AA06A024313434B60214BA9
:100D240001221A60FFF740FC04461C4B1B6813F0B9
:100D3400007F12D1FFF738FC001B0228F5D90320ED
:100D440026E0164AD36A61680B43D362D36A23F060
:100D54000F03E1680B43D362D8E7002018E00020BA
:100D640016E0012B16D00D4B5B6803F48031626AE8
:100D7400914201D001200BE003F47013A26A934264
:100D84000AD0012004E001207047012000E0002087
:100D940002B070BD0120FBE70020F9E7001002401B
:100DA4006800424260004242F0B589B0274C04AD6D
:100DB40094E80F0007C52B806D46103494E80F00AB
:100DC40085E80F00224B5B6803F00C02042A03D071
:100DD400082A04D01F4800E01F4809B0F0BDC3F33F
:100DE400834208A90A4412F8104C13F4803F28D017
:100DF4001749CB6A03F00F0308AA134413F8202CF5
:100E0400CB6A13F4803F16D0CB6AC3F303130133C8
:100E1400CE6AC6F303260236A6FB04670E4DA6FB74
:100E2400050105FB0711A3FB0223FFF7F9F90D2CBC
:100E3400D3D14008D1E7084800FB04F0B0FBF2F03E
:100E4400F5E7064800FB04F0C7E700BFF41100080B
:100E54000010024000127A0040787D0100093D0034
:100E6400002800F0A38070B50446524B1B6803F0C1
:100E740007038B420CD24F4A136823F007030B433A
:100E84001360136803F007038B4201D0012070BD87
:100E9400236813F0020F17D013F0040F04D0464A4E
:100EA400536843F4E0635360236813F0080F04D0DD
:100EB400414A536843F4605353603F4A536823F0F4
:100EC400F003A068034353600D46236813F0010F39
:100ED40031D06368012B20D0022B25D0364A12680A
:100EE40012F0020F64D034494A6822F0030213431B
:100EF4004B60FFF759FB06462F4B5B6803F00C036E
:100F04006268B3EB820F16D0FFF74EFB801B41F2F1
:100F140088339842F0D90320B9E7274A126812F4BB
:100F2400003FE0D10120B2E7234A126812F0007FAB
:100F3400D9D10120ABE71F4B1B6803F00703AB4279
:100F44000CD91C4A136823F007032B43136013685E
:100F540003F00703AB4201D0012098E7236813F0A4
:100F6400040F06D0144A536823F4E063E1680B438A
:100F74005360236813F0080F07D00F4A536823F413
:100F84006053216943EAC1035360FFF70DFF0A4B25
:100F94005B68C3F30313094AD35CD840084B186059
:100FA400084B1868FFF7BEFA002070E7012070476D
:100FB40001206CE7002002400010024014120008D7
:100FC400080000200400002030B589B000240494F7
:100FD400059406940794184B9A6942F020029A618A
:100FE4009A6902F020020192019A9A6942F004027D
:100FF4009A619A6902F004020292029A9A6942F092
:1010040010029A619B6903F010030393039B0B4D39
:1010140001224FF480612846FFF728FC4FF48063D7
:1010240004930123059306940223079304A92846F5
:10103400FFF730FB09B030BD001002400010014042
:1010440070B594B000240A940C940D940194029405
:10105400039404940594012606964FF48033089370
:10106400042209920B96079302250E950F934FF4D1
:10107400E013109311954FF4C0631293402313931C
:1010840006A8FFF717FC0F230193029503944FF46E
:10109400806304930594294601A8FFF7E1FE024BFF
:1010A4001E6014B070BD00BF7000424208B5FFF767
:1010B4005DFAFFF7C5FFFFF787FF4FF4806104482F
:1010C400FFF7DAFB4FF47A70FFF774FAF5E700BF25
:1010D4000010014000B583B00F4B9A6942F0010241
:1010E4009A619A6902F001020092009ADA6942F068
:1010F4008052DA61DB6903F080530193019B07207E
:10110400FFF76CFA054A536823F0E06343F0007379
:10111400536003B05DF804FB00100240000001407E
:101124007047FEE7FEE7FEE7FEE77047704770474B
:1011340008B5FFF72DFA08BD124B1A6842F00102F8
:101144001A605968104A0A405A601A6822F0847278
:1011540022F480321A601A6822F480221A605A68D3
:1011640022F4FE025A601A6822F0A0521A604FF468
:101174007F029A600022DA62044B4FF000629A60A8
:10118400704700BF001002400000FFF000ED00E0D7
:10119400002103E00A4B5B584350043109480A4BD1
:1011A40042189A42F6D3094A02E0002342F8043B6B
:1011B400074B9A42F9D3FFF7BFFFFFF777FF70475A
:1011C4003C120008000000200C0000200C0000204D
:1011D4002C000020FEE70000F8B500BFF8BC08BCF6
:1011E4009E467047F8B500BFF8BC08BC9E467047E1
:1011F400000004050607080900000000000D0000B7
:101204000102030405060708090A0B0C0D0E0F1052
:1012140000000000000000000102030406070809A2
:081224000000000001020304B8
:08122C0028F0FF7F0100000023
:0412340009020008A3
:04123800E5010008C4
:0C123C0001000000100000000024F4007D
:040000050800119549
:00000001FF
